{
    "contractName": "Handraise",
    "abi": [
        {
            "inputs": [
                {
                    "internalType": "uint256",
                    "name": "initialSupply",
                    "type": "uint256"
                }
            ],
            "stateMutability": "nonpayable",
            "type": "constructor"
        },
        {
            "inputs": [
                {
                    "internalType": "address",
                    "name": "spender",
                    "type": "address"
                },
                {
                    "internalType": "uint256",
                    "name": "allowance",
                    "type": "uint256"
                },
                {
                    "internalType": "uint256",
                    "name": "needed",
                    "type": "uint256"
                }
            ],
            "name": "ERC20InsufficientAllowance",
            "type": "error"
        },
        {
            "inputs": [
                {
                    "internalType": "address",
                    "name": "sender",
                    "type": "address"
                },
                {
                    "internalType": "uint256",
                    "name": "balance",
                    "type": "uint256"
                },
                {
                    "internalType": "uint256",
                    "name": "needed",
                    "type": "uint256"
                }
            ],
            "name": "ERC20InsufficientBalance",
            "type": "error"
        },
        {
            "inputs": [
                {
                    "internalType": "address",
                    "name": "approver",
                    "type": "address"
                }
            ],
            "name": "ERC20InvalidApprover",
            "type": "error"
        },
        {
            "inputs": [
                {
                    "internalType": "address",
                    "name": "receiver",
                    "type": "address"
                }
            ],
            "name": "ERC20InvalidReceiver",
            "type": "error"
        },
        {
            "inputs": [
                {
                    "internalType": "address",
                    "name": "sender",
                    "type": "address"
                }
            ],
            "name": "ERC20InvalidSender",
            "type": "error"
        },
        {
            "inputs": [
                {
                    "internalType": "address",
                    "name": "spender",
                    "type": "address"
                }
            ],
            "name": "ERC20InvalidSpender",
            "type": "error"
        },
        {
            "anonymous": false,
            "inputs": [
                {
                    "indexed": true,
                    "internalType": "address",
                    "name": "owner",
                    "type": "address"
                },
                {
                    "indexed": true,
                    "internalType": "address",
                    "name": "spender",
                    "type": "address"
                },
                {
                    "indexed": false,
                    "internalType": "uint256",
                    "name": "value",
                    "type": "uint256"
                }
            ],
            "name": "Approval",
            "type": "event"
        },
        {
            "anonymous": false,
            "inputs": [
                {
                    "indexed": true,
                    "internalType": "address",
                    "name": "sender",
                    "type": "address"
                },
                {
                    "indexed": false,
                    "internalType": "uint256",
                    "name": "amount",
                    "type": "uint256"
                }
            ],
            "name": "ReceivedETH",
            "type": "event"
        },
        {
            "anonymous": false,
            "inputs": [
                {
                    "indexed": true,
                    "internalType": "address",
                    "name": "sender",
                    "type": "address"
                },
                {
                    "indexed": false,
                    "internalType": "uint256",
                    "name": "amount",
                    "type": "uint256"
                }
            ],
            "name": "TokensBurned",
            "type": "event"
        },
        {
            "anonymous": false,
            "inputs": [
                {
                    "indexed": true,
                    "internalType": "address",
                    "name": "recipient",
                    "type": "address"
                },
                {
                    "indexed": false,
                    "internalType": "uint256",
                    "name": "amount",
                    "type": "uint256"
                },
                {
                    "indexed": false,
                    "internalType": "string",
                    "name": "reason",
                    "type": "string"
                }
            ],
            "name": "TokensMinted",
            "type": "event"
        },
        {
            "anonymous": false,
            "inputs": [
                {
                    "indexed": false,
                    "internalType": "address[]",
                    "name": "recipients",
                    "type": "address[]"
                },
                {
                    "indexed": false,
                    "internalType": "uint256[]",
                    "name": "amounts",
                    "type": "uint256[]"
                }
            ],
            "name": "TokensMintedBatch",
            "type": "event"
        },
        {
            "anonymous": false,
            "inputs": [
                {
                    "indexed": true,
                    "internalType": "address",
                    "name": "from",
                    "type": "address"
                },
                {
                    "indexed": true,
                    "internalType": "address",
                    "name": "to",
                    "type": "address"
                },
                {
                    "indexed": false,
                    "internalType": "uint256",
                    "name": "value",
                    "type": "uint256"
                }
            ],
            "name": "Transfer",
            "type": "event"
        },
        {
            "inputs": [
                {
                    "internalType": "address",
                    "name": "owner",
                    "type": "address"
                },
                {
                    "internalType": "address",
                    "name": "spender",
                    "type": "address"
                }
            ],
            "name": "allowance",
            "outputs": [
                {
                    "internalType": "uint256",
                    "name": "",
                    "type": "uint256"
                }
            ],
            "stateMutability": "view",
            "type": "function"
        },
        {
            "inputs": [
                {
                    "internalType": "address",
                    "name": "spender",
                    "type": "address"
                },
                {
                    "internalType": "uint256",
                    "name": "value",
                    "type": "uint256"
                }
            ],
            "name": "approve",
            "outputs": [
                {
                    "internalType": "bool",
                    "name": "",
                    "type": "bool"
                }
            ],
            "stateMutability": "nonpayable",
            "type": "function"
        },
        {
            "inputs": [
                {
                    "internalType": "address",
                    "name": "account",
                    "type": "address"
                }
            ],
            "name": "balanceOf",
            "outputs": [
                {
                    "internalType": "uint256",
                    "name": "",
                    "type": "uint256"
                }
            ],
            "stateMutability": "view",
            "type": "function"
        },
        {
            "inputs": [
                {
                    "internalType": "uint256",
                    "name": "amount",
                    "type": "uint256"
                }
            ],
            "name": "burn",
            "outputs": [],
            "stateMutability": "nonpayable",
            "type": "function"
        },
        {
            "inputs": [],
            "name": "decimals",
            "outputs": [
                {
                    "internalType": "uint8",
                    "name": "",
                    "type": "uint8"
                }
            ],
            "stateMutability": "view",
            "type": "function"
        },
        {
            "inputs": [],
            "name": "getContractBalance",
            "outputs": [
                {
                    "internalType": "uint256",
                    "name": "",
                    "type": "uint256"
                }
            ],
            "stateMutability": "view",
            "type": "function"
        },
        {
            "inputs": [
                {
                    "internalType": "address",
                    "name": "to",
                    "type": "address"
                },
                {
                    "internalType": "uint256",
                    "name": "amount",
                    "type": "uint256"
                },
                {
                    "internalType": "string",
                    "name": "reason",
                    "type": "string"
                }
            ],
            "name": "mint",
            "outputs": [],
            "stateMutability": "nonpayable",
            "type": "function"
        },
        {
            "inputs": [
                {
                    "internalType": "address[]",
                    "name": "recipients",
                    "type": "address[]"
                },
                {
                    "internalType": "uint256[]",
                    "name": "amounts",
                    "type": "uint256[]"
                }
            ],
            "name": "mintBatch",
            "outputs": [],
            "stateMutability": "nonpayable",
            "type": "function"
        },
        {
            "inputs": [],
            "name": "name",
            "outputs": [
                {
                    "internalType": "string",
                    "name": "",
                    "type": "string"
                }
            ],
            "stateMutability": "view",
            "type": "function"
        },
        {
            "inputs": [],
            "name": "owner",
            "outputs": [
                {
                    "internalType": "address",
                    "name": "",
                    "type": "address"
                }
            ],
            "stateMutability": "view",
            "type": "function"
        },
        {
            "inputs": [],
            "name": "symbol",
            "outputs": [
                {
                    "internalType": "string",
                    "name": "",
                    "type": "string"
                }
            ],
            "stateMutability": "view",
            "type": "function"
        },
        {
            "inputs": [],
            "name": "totalSupply",
            "outputs": [
                {
                    "internalType": "uint256",
                    "name": "",
                    "type": "uint256"
                }
            ],
            "stateMutability": "view",
            "type": "function"
        },
        {
            "inputs": [
                {
                    "internalType": "address",
                    "name": "to",
                    "type": "address"
                },
                {
                    "internalType": "uint256",
                    "name": "value",
                    "type": "uint256"
                }
            ],
            "name": "transfer",
            "outputs": [
                {
                    "internalType": "bool",
                    "name": "",
                    "type": "bool"
                }
            ],
            "stateMutability": "nonpayable",
            "type": "function"
        },
        {
            "inputs": [
                {
                    "internalType": "address",
                    "name": "from",
                    "type": "address"
                },
                {
                    "internalType": "address",
                    "name": "to",
                    "type": "address"
                },
                {
                    "internalType": "uint256",
                    "name": "value",
                    "type": "uint256"
                }
            ],
            "name": "transferFrom",
            "outputs": [
                {
                    "internalType": "bool",
                    "name": "",
                    "type": "bool"
                }
            ],
            "stateMutability": "nonpayable",
            "type": "function"
        },
        {
            "inputs": [
                {
                    "internalType": "uint256",
                    "name": "amount",
                    "type": "uint256"
                },
                {
                    "internalType": "address payable",
                    "name": "to",
                    "type": "address"
                }
            ],
            "name": "withdrawETH",
            "outputs": [],
            "stateMutability": "nonpayable",
            "type": "function"
        },
        {
            "stateMutability": "payable",
            "type": "receive"
        }
    ],
    "bytecode": "60806040523461037b5761110c6020813803918261001c8161037f565b93849283398101031261037b5751610034604061037f565b90600982526848616e64726169736560b81b6020830152610055604061037f565b600381526224222960e91b602082015282519091906001600160401b03811161028c57600354600181811c91168015610371575b602082101461026e57601f811161030e575b506020601f82116001146102ab57819293945f926102a0575b50508160011b915f199060031b1c1916176003555b81516001600160401b03811161028c57600454600181811c91168015610282575b602082101461026e57601f811161020b575b50602092601f82116001146101aa57928192935f9261019f575b50508160011b915f199060031b1c1916176004555b600580546001600160a01b03191633179055670de0b6b3a7640000818102918015908304909114171561018b5733156101785761016990335f6103a4565b604051610c1c90816104d08239f35b63ec442f0560e01b5f525f60045260245ffd5b634e487b7160e01b5f52601160045260245ffd5b015190505f80610116565b601f1982169360045f52805f20915f5b8681106101f357508360019596106101db575b505050811b0160045561012b565b01515f1960f88460031b161c191690555f80806101cd565b919260206001819286850151815501940192016101ba565b60045f527f8a35acfbc15ff81a39ae7d344fd709f28e8600b4aa8c65c6b64bfe7fe36bd19b601f830160051c81019160208410610264575b601f0160051c01905b81811061025957506100fc565b5f815560010161024c565b9091508190610243565b634e487b7160e01b5f52602260045260245ffd5b90607f16906100ea565b634e487b7160e01b5f52604160045260245ffd5b015190505f806100b4565b601f1982169060035f52805f20915f5b8181106102f6575095836001959697106102de575b505050811b016003556100c9565b01515f1960f88460031b161c191690555f80806102d0565b9192602060018192868b0151815501940192016102bb565b60035f527fc2575a0e9e593c00f959f8c92f12db2869c3395a3b0502d05e2516446f71f85b601f830160051c81019160208410610367575b601f0160051c01905b81811061035c575061009b565b5f815560010161034f565b9091508190610346565b90607f1690610089565b5f80fd5b6040519190601f01601f191682016001600160401b0381118382101761028c57604052565b6001600160a01b0390911691903083036103c4576103c29250610472565b565b6001600160a01b031690816104225760025481810180911161018b575f5160206110ec5f395f51905f52916020916002555b8461040d5780600254036002555b604051908152a3565b845f525f825260405f20818154019055610404565b815f525f60205260405f205481811061045957815f5160206110ec5f395f51905f5292602092855f525f84520360405f20556103f6565b8263391434e360e21b5f5260045260245260445260645ffd5b6001600160a01b038116919082156104bc57815f61048f926103a4565b60207ffd38818f5291bf0bb3a2a48aadc06ba8757865d1dabd804585338aab3009dcb691604051908152a2565b634b637e8f60e11b5f525f60045260245ffdfe6080806040526004361015610048575b50361561001a575f80fd5b6040513481527f4103257eaac983ca79a70d28f90dfc4fa16b619bb0c17ee7cab0d4034c27962460203392a2005b5f3560e01c90816306fdde031461085757508063095ea7b3146107d557806318160ddd146107b857806323b872dd146106d8578063313ce567146106bd57806336118b52146105c757806342966c681461057b5780636f9fb98a1461056057806370a08231146105295780637c88e3d91461039d5780638da5cb5b1461037557806395d89b411461025a578063a9059cbb14610229578063d3fc98641461014d5763dd62ed3e146100f9575f61000f565b3461014957604036600319011261014957610112610950565b61011a610966565b6001600160a01b039182165f908152600160209081526040808320949093168252928352819020549051908152f35b5f80fd5b3461014957606036600319011261014957610166610950565b60243560443567ffffffffffffffff8111610149573660238201121561014957806004013567ffffffffffffffff8111610149573660248284010111610149577f9d89e36eadf856db0ad9ffb5a569e07f95634dddd9501141ecf04820484ad0dc926060916101e060055460018060a01b031633146109ad565b6101ea8287610a88565b80602460405195869485526040602086015282604086015201848401375f8282018401526001600160a01b0390951694601f01601f19168101030190a2005b346101495760403660031901126101495761024f610245610950565b6024359033610a1d565b602060405160018152f35b34610149575f366003190112610149576040515f6004548060011c9060018116801561036b575b6020831081146103575782855290811561033b57506001146102e6575b50819003601f01601f191681019067ffffffffffffffff8211818310176102d2576102ce82918260405282610926565b0390f35b634e487b7160e01b5f52604160045260245ffd5b905060045f527f8a35acfbc15ff81a39ae7d344fd709f28e8600b4aa8c65c6b64bfe7fe36bd19b5f905b8282106103255750602091508201018261029e565b6001816020925483858801015201910190610310565b90506020925060ff191682840152151560051b8201018261029e565b634e487b7160e01b5f52602260045260245ffd5b91607f1691610281565b34610149575f366003190112610149576005546040516001600160a01b039091168152602090f35b346101495760403660031901126101495760043567ffffffffffffffff8111610149576103ce90369060040161097c565b60243567ffffffffffffffff8111610149576103ee90369060040161097c565b600554919391610408906001600160a01b031633146109ad565b8083036104f0575f5b8381106104b4575060405192806040850160408652526060840192905f905b80821061048a5750505082820360208401528082526001600160fb1b038111610149577fd254385c8b96fd2366149d33b47832c65b54b278fb7dfab0a505c2f741a1351393602092849260051b80928583013701030190a1005b90919384359060018060a01b03821680920361014957602081600193829352019501920190610430565b6104bf8185856109f9565b35906001600160a01b0382168203610149576001916104ea906104e383868a6109f9565b3590610a88565b01610411565b60405162461bcd60e51b81526020600482015260116024820152704d69736d6174636865642061727261797360781b6044820152606490fd5b34610149576020366003190112610149576001600160a01b0361054a610950565b165f525f602052602060405f2054604051908152f35b34610149575f36600319011261014957602047604051908152f35b34610149576020366003190112610149576004356105998133610a6e565b6040519081527ffd38818f5291bf0bb3a2a48aadc06ba8757865d1dabd804585338aab3009dcb660203392a2005b34610149576040366003190112610149576004356024356001600160a01b03811690819003610149576005546001600160a01b0316330361067857814710610633575f808093819382821561062a575bf11561061f57005b6040513d5f823e3d90fd5b506108fc610617565b60405162461bcd60e51b815260206004820152601860248201527f496e73756666696369656e74204554482062616c616e636500000000000000006044820152606490fd5b60405162461bcd60e51b815260206004820152601f60248201527f4f6e6c7920746865206f776e65722063616e20776974686472617720455448006044820152606490fd5b34610149575f36600319011261014957602060405160128152f35b34610149576060366003190112610149576106f1610950565b6106f9610966565b6001600160a01b0382165f818152600160208181526040808420338552909152909120549193604435939290918101610738575b5061024f9350610a1d565b83811061079d57841561078a5733156107775761024f945f52600160205260405f2060018060a01b0333165f526020528360405f20910390558461072d565b634a1406b160e11b5f525f60045260245ffd5b63e602df0560e01b5f525f60045260245ffd5b8390637dc7a0d960e11b5f523360045260245260445260645ffd5b34610149575f366003190112610149576020600254604051908152f35b34610149576040366003190112610149576107ee610950565b60243590331561078a576001600160a01b031690811561077757335f52600160205260405f20825f526020528060405f20556040519081527f8c5be1e5ebec7d5bd14f71427d1e84f3dd0314c0f7b2291e5b200ac8c7c3b92560203392a3602060405160018152f35b34610149575f366003190112610149575f6003548060011c9060018116801561091c575b6020831081146103575782855290811561033b57506001146108c75750819003601f01601f191681019067ffffffffffffffff8211818310176102d2576102ce82918260405282610926565b905060035f527fc2575a0e9e593c00f959f8c92f12db2869c3395a3b0502d05e2516446f71f85b5f905b8282106109065750602091508201018261029e565b60018160209254838588010152019101906108f1565b91607f169161087b565b602060409281835280519182918282860152018484015e5f828201840152601f01601f1916010190565b600435906001600160a01b038216820361014957565b602435906001600160a01b038216820361014957565b9181601f840112156101495782359167ffffffffffffffff8311610149576020808501948460051b01011161014957565b156109b457565b60405162461bcd60e51b815260206004820152601e60248201527f4f6e6c7920746865206f776e65722063616e206d696e7420746f6b656e7300006044820152606490fd5b9190811015610a095760051b0190565b634e487b7160e01b5f52603260045260245ffd5b91906001600160a01b03831615610a5b576001600160a01b03811615610a4857610a4692610a9e565b565b63ec442f0560e01b5f525f60045260245ffd5b634b637e8f60e11b5f525f60045260245ffd5b906001600160a01b03821615610a5b575f610a4692610a9e565b906001600160a01b03821615610a4857610a46915f5b6001600160a01b039091169190308303610abc57610a469250610ba4565b6001600160a01b03169081610b4157600254818101809111610b2d577fddf252ad1be2c89b69c2b068fc378daa952ba7f163c4a11628f55a4df523b3ef916020916002555b84610b185780600254036002555b604051908152a3565b845f525f825260405f20818154019055610b0f565b634e487b7160e01b5f52601160045260245ffd5b815f525f60205260405f2054818110610b8b57817fddf252ad1be2c89b69c2b068fc378daa952ba7f163c4a11628f55a4df523b3ef92602092855f525f84520360405f2055610b01565b8263391434e360e21b5f5260045260245260445260645ffd5b610bae8282610a6e565b6040519182526001600160a01b0316907ffd38818f5291bf0bb3a2a48aadc06ba8757865d1dabd804585338aab3009dcb690602090a256fea2646970667358221220b484f7acef0c5a06f1b6c81228bb1629d5e28c3eaa03f1eeed7950f9fee4908064736f6c634300081c0033ddf252ad1be2c89b69c2b068fc378daa952ba7f163c4a11628f55a4df523b3ef",
    "sourcePath": "c:/Users/bisho/Documents/Crypto/Goat Group/Handraise/handraise.sol",
    "compiler": {
        "name": "solc",
        "version": "0.8.28+commit.7893614a"
    },
    "functionHashes": {
        "allowance(address,address)": "dd62ed3e",
        "approve(address,uint256)": "095ea7b3",
        "balanceOf(address)": "70a08231",
        "burn(uint256)": "42966c68",
        "decimals()": "313ce567",
        "getContractBalance()": "6f9fb98a",
        "mint(address,uint256,string)": "d3fc9864",
        "mintBatch(address[],uint256[])": "7c88e3d9",
        "name()": "06fdde03",
        "owner()": "8da5cb5b",
        "symbol()": "95d89b41",
        "totalSupply()": "18160ddd",
        "transfer(address,uint256)": "a9059cbb",
        "transferFrom(address,address,uint256)": "23b872dd",
        "withdrawETH(uint256,address)": "36118b52"
    },
    "gasEstimates": {
        "creation": {
            "codeDepositCost": "620000",
            "executionCost": "infinite",
            "totalCost": "infinite"
        },
        "external": {
            "allowance(address,address)": "2878",
            "approve(address,uint256)": "24325",
            "balanceOf(address)": "2581",
            "burn(uint256)": "infinite",
            "decimals()": "241",
            "getContractBalance()": "312",
            "mint(address,uint256,string)": "infinite",
            "mintBatch(address[],uint256[])": "infinite",
            "name()": "infinite",
            "owner()": "2500",
            "symbol()": "infinite",
            "totalSupply()": "2300",
            "transfer(address,uint256)": "infinite",
            "transferFrom(address,address,uint256)": "infinite",
            "withdrawETH(uint256,address)": "infinite"
        },
        "internal": {
            "_update(address,address,uint256)": "infinite",
            "burnTokensOnReceive(address,uint256)": "infinite"
        }
    }
}