{
  "contractName": "Handraise",
  "abi": [
    {
      "inputs": [
        {
          "internalType": "string",
          "name": "name",
          "type": "string"
        },
        {
          "internalType": "string",
          "name": "symbol",
          "type": "string"
        },
        {
          "internalType": "uint8",
          "name": "decimals",
          "type": "uint8"
        },
        {
          "internalType": "uint256",
          "name": "initialSupply",
          "type": "uint256"
        }
      ],
      "stateMutability": "nonpayable",
      "type": "constructor"
    },
    {
      "inputs": [
        {
          "internalType": "address",
          "name": "spender",
          "type": "address"
        },
        {
          "internalType": "uint256",
          "name": "allowance",
          "type": "uint256"
        },
        {
          "internalType": "uint256",
          "name": "needed",
          "type": "uint256"
        }
      ],
      "name": "ERC20InsufficientAllowance",
      "type": "error"
    },
    {
      "inputs": [
        {
          "internalType": "address",
          "name": "sender",
          "type": "address"
        },
        {
          "internalType": "uint256",
          "name": "balance",
          "type": "uint256"
        },
        {
          "internalType": "uint256",
          "name": "needed",
          "type": "uint256"
        }
      ],
      "name": "ERC20InsufficientBalance",
      "type": "error"
    },
    {
      "inputs": [
        {
          "internalType": "address",
          "name": "approver",
          "type": "address"
        }
      ],
      "name": "ERC20InvalidApprover",
      "type": "error"
    },
    {
      "inputs": [
        {
          "internalType": "address",
          "name": "receiver",
          "type": "address"
        }
      ],
      "name": "ERC20InvalidReceiver",
      "type": "error"
    },
    {
      "inputs": [
        {
          "internalType": "address",
          "name": "sender",
          "type": "address"
        }
      ],
      "name": "ERC20InvalidSender",
      "type": "error"
    },
    {
      "inputs": [
        {
          "internalType": "address",
          "name": "spender",
          "type": "address"
        }
      ],
      "name": "ERC20InvalidSpender",
      "type": "error"
    },
    {
      "anonymous": false,
      "inputs": [
        {
          "indexed": true,
          "internalType": "address",
          "name": "owner",
          "type": "address"
        },
        {
          "indexed": true,
          "internalType": "address",
          "name": "spender",
          "type": "address"
        },
        {
          "indexed": false,
          "internalType": "uint256",
          "name": "value",
          "type": "uint256"
        }
      ],
      "name": "Approval",
      "type": "event"
    },
    {
      "anonymous": false,
      "inputs": [
        {
          "indexed": true,
          "internalType": "address",
          "name": "sender",
          "type": "address"
        },
        {
          "indexed": false,
          "internalType": "uint256",
          "name": "amount",
          "type": "uint256"
        }
      ],
      "name": "ReceivedETH",
      "type": "event"
    },
    {
      "anonymous": false,
      "inputs": [
        {
          "indexed": true,
          "internalType": "address",
          "name": "sender",
          "type": "address"
        },
        {
          "indexed": false,
          "internalType": "uint256",
          "name": "amount",
          "type": "uint256"
        }
      ],
      "name": "TokensBurned",
      "type": "event"
    },
    {
      "anonymous": false,
      "inputs": [
        {
          "indexed": true,
          "internalType": "address",
          "name": "recipient",
          "type": "address"
        },
        {
          "indexed": false,
          "internalType": "uint256",
          "name": "amount",
          "type": "uint256"
        },
        {
          "indexed": false,
          "internalType": "string",
          "name": "reason",
          "type": "string"
        }
      ],
      "name": "TokensMinted",
      "type": "event"
    },
    {
      "anonymous": false,
      "inputs": [
        {
          "indexed": false,
          "internalType": "address[]",
          "name": "recipients",
          "type": "address[]"
        },
        {
          "indexed": false,
          "internalType": "uint256[]",
          "name": "amounts",
          "type": "uint256[]"
        }
      ],
      "name": "TokensMintedBatch",
      "type": "event"
    },
    {
      "anonymous": false,
      "inputs": [
        {
          "indexed": true,
          "internalType": "address",
          "name": "from",
          "type": "address"
        },
        {
          "indexed": true,
          "internalType": "address",
          "name": "to",
          "type": "address"
        },
        {
          "indexed": false,
          "internalType": "uint256",
          "name": "value",
          "type": "uint256"
        }
      ],
      "name": "Transfer",
      "type": "event"
    },
    {
      "inputs": [
        {
          "internalType": "address",
          "name": "owner",
          "type": "address"
        },
        {
          "internalType": "address",
          "name": "spender",
          "type": "address"
        }
      ],
      "name": "allowance",
      "outputs": [
        {
          "internalType": "uint256",
          "name": "",
          "type": "uint256"
        }
      ],
      "stateMutability": "view",
      "type": "function",
      "constant": true
    },
    {
      "inputs": [
        {
          "internalType": "address",
          "name": "spender",
          "type": "address"
        },
        {
          "internalType": "uint256",
          "name": "value",
          "type": "uint256"
        }
      ],
      "name": "approve",
      "outputs": [
        {
          "internalType": "bool",
          "name": "",
          "type": "bool"
        }
      ],
      "stateMutability": "nonpayable",
      "type": "function"
    },
    {
      "inputs": [
        {
          "internalType": "address",
          "name": "account",
          "type": "address"
        }
      ],
      "name": "balanceOf",
      "outputs": [
        {
          "internalType": "uint256",
          "name": "",
          "type": "uint256"
        }
      ],
      "stateMutability": "view",
      "type": "function",
      "constant": true
    },
    {
      "inputs": [],
      "name": "decimals",
      "outputs": [
        {
          "internalType": "uint8",
          "name": "",
          "type": "uint8"
        }
      ],
      "stateMutability": "view",
      "type": "function",
      "constant": true
    },
    {
      "inputs": [],
      "name": "name",
      "outputs": [
        {
          "internalType": "string",
          "name": "",
          "type": "string"
        }
      ],
      "stateMutability": "view",
      "type": "function",
      "constant": true
    },
    {
      "inputs": [],
      "name": "owner",
      "outputs": [
        {
          "internalType": "address",
          "name": "",
          "type": "address"
        }
      ],
      "stateMutability": "view",
      "type": "function",
      "constant": true
    },
    {
      "inputs": [],
      "name": "symbol",
      "outputs": [
        {
          "internalType": "string",
          "name": "",
          "type": "string"
        }
      ],
      "stateMutability": "view",
      "type": "function",
      "constant": true
    },
    {
      "inputs": [],
      "name": "totalSupply",
      "outputs": [
        {
          "internalType": "uint256",
          "name": "",
          "type": "uint256"
        }
      ],
      "stateMutability": "view",
      "type": "function",
      "constant": true
    },
    {
      "inputs": [
        {
          "internalType": "address",
          "name": "to",
          "type": "address"
        },
        {
          "internalType": "uint256",
          "name": "value",
          "type": "uint256"
        }
      ],
      "name": "transfer",
      "outputs": [
        {
          "internalType": "bool",
          "name": "",
          "type": "bool"
        }
      ],
      "stateMutability": "nonpayable",
      "type": "function"
    },
    {
      "inputs": [
        {
          "internalType": "address",
          "name": "from",
          "type": "address"
        },
        {
          "internalType": "address",
          "name": "to",
          "type": "address"
        },
        {
          "internalType": "uint256",
          "name": "value",
          "type": "uint256"
        }
      ],
      "name": "transferFrom",
      "outputs": [
        {
          "internalType": "bool",
          "name": "",
          "type": "bool"
        }
      ],
      "stateMutability": "nonpayable",
      "type": "function"
    },
    {
      "stateMutability": "payable",
      "type": "receive",
      "payable": true
    },
    {
      "inputs": [
        {
          "internalType": "uint256",
          "name": "amount",
          "type": "uint256"
        },
        {
          "internalType": "address payable",
          "name": "to",
          "type": "address"
        }
      ],
      "name": "withdrawETH",
      "outputs": [],
      "stateMutability": "nonpayable",
      "type": "function"
    },
    {
      "inputs": [],
      "name": "getContractBalance",
      "outputs": [
        {
          "internalType": "uint256",
          "name": "",
          "type": "uint256"
        }
      ],
      "stateMutability": "view",
      "type": "function",
      "constant": true
    },
    {
      "inputs": [
        {
          "internalType": "address",
          "name": "to",
          "type": "address"
        },
        {
          "internalType": "uint256",
          "name": "amount",
          "type": "uint256"
        },
        {
          "internalType": "string",
          "name": "reason",
          "type": "string"
        }
      ],
      "name": "mint",
      "outputs": [],
      "stateMutability": "nonpayable",
      "type": "function"
    },
    {
      "inputs": [
        {
          "internalType": "address[]",
          "name": "recipients",
          "type": "address[]"
        },
        {
          "internalType": "uint256[]",
          "name": "amounts",
          "type": "uint256[]"
        }
      ],
      "name": "mintBatch",
      "outputs": [],
      "stateMutability": "nonpayable",
      "type": "function"
    },
    {
      "inputs": [
        {
          "internalType": "uint256",
          "name": "amount",
          "type": "uint256"
        }
      ],
      "name": "burn",
      "outputs": [],
      "stateMutability": "nonpayable",
      "type": "function"
    }
  ],
  "bytecode": "0x608060405234801562000010575f80fd5b50604051620015ca380380620015ca833981016040819052620000339162000380565b8383600362000043838262000490565b50600462000052828262000490565b5050600580546001600160a01b031916339081179091556200008e91506200007c84600a62000667565b6200008890846200067e565b62000098565b50505050620006ae565b6001600160a01b038216620000c75760405163ec442f0560e01b81525f60048201526024015b60405180910390fd5b620000d45f8383620000d8565b5050565b306001600160a01b03831603620000fa57620000f5838262000107565b505050565b620000f58383836200015b565b6200011382826200028a565b816001600160a01b03167ffd38818f5291bf0bb3a2a48aadc06ba8757865d1dabd804585338aab3009dcb6826040516200014f91815260200190565b60405180910390a25050565b6001600160a01b03831662000189578060025f8282546200017d919062000698565b90915550620001fb9050565b6001600160a01b0383165f9081526020819052604090205481811015620001dd5760405163391434e360e21b81526001600160a01b03851660048201526024810182905260448101839052606401620000be565b6001600160a01b0384165f9081526020819052604090209082900390555b6001600160a01b038216620002195760028054829003905562000237565b6001600160a01b0382165f9081526020819052604090208054820190555b816001600160a01b0316836001600160a01b03167fddf252ad1be2c89b69c2b068fc378daa952ba7f163c4a11628f55a4df523b3ef836040516200027d91815260200190565b60405180910390a3505050565b6001600160a01b038216620002b557604051634b637e8f60e11b81525f6004820152602401620000be565b620000d4825f83620000d8565b634e487b7160e01b5f52604160045260245ffd5b5f82601f830112620002e6575f80fd5b81516001600160401b0380821115620003035762000303620002c2565b604051601f8301601f19908116603f011681019082821181831017156200032e576200032e620002c2565b816040528381526020925086838588010111156200034a575f80fd5b5f91505b838210156200036d57858201830151818301840152908201906200034e565b5f93810190920192909252949350505050565b5f805f806080858703121562000394575f80fd5b84516001600160401b0380821115620003ab575f80fd5b620003b988838901620002d6565b95506020870151915080821115620003cf575f80fd5b50620003de87828801620002d6565b935050604085015160ff81168114620003f5575f80fd5b6060959095015193969295505050565b600181811c908216806200041a57607f821691505b6020821081036200043957634e487b7160e01b5f52602260045260245ffd5b50919050565b601f821115620000f5575f81815260208120601f850160051c81016020861015620004675750805b601f850160051c820191505b81811015620004885782815560010162000473565b505050505050565b81516001600160401b03811115620004ac57620004ac620002c2565b620004c481620004bd845462000405565b846200043f565b602080601f831160018114620004fa575f8415620004e25750858301515b5f19600386901b1c1916600185901b17855562000488565b5f85815260208120601f198616915b828110156200052a5788860151825594840194600190910190840162000509565b50858210156200054857878501515f19600388901b60f8161c191681555b5050505050600190811b01905550565b634e487b7160e01b5f52601160045260245ffd5b600181815b80851115620005ac57815f190482111562000590576200059062000558565b808516156200059e57918102915b93841c939080029062000571565b509250929050565b5f82620005c45750600162000661565b81620005d257505f62000661565b8160018114620005eb5760028114620005f65762000616565b600191505062000661565b60ff8411156200060a576200060a62000558565b50506001821b62000661565b5060208310610133831016604e8410600b84101617156200063b575081810a62000661565b6200064783836200056c565b805f19048211156200065d576200065d62000558565b0290505b92915050565b5f6200067760ff841683620005b4565b9392505050565b808202811582820484141762000661576200066162000558565b8082018082111562000661576200066162000558565b610f0e80620006bc5f395ff3fe6080604052600436106100e7575f3560e01c80636f9fb98a1161008757806395d89b411161005757806395d89b41146102b4578063a9059cbb146102c8578063d3fc9864146102e7578063dd62ed3e14610306575f80fd5b80636f9fb98a1461021857806370a082311461022a5780637c88e3d91461025e5780638da5cb5b1461027d575f80fd5b806323b872dd116100c257806323b872dd1461019e578063313ce567146101bd57806336118b52146101d857806342966c68146101f9575f80fd5b806306fdde0314610127578063095ea7b31461015157806318160ddd14610180575f80fd5b366101235760405134815233907f4103257eaac983ca79a70d28f90dfc4fa16b619bb0c17ee7cab0d4034c2796249060200160405180910390a2005b5f80fd5b348015610132575f80fd5b5061013b61034a565b6040516101489190610b0e565b60405180910390f35b34801561015c575f80fd5b5061017061016b366004610b70565b6103da565b6040519015158152602001610148565b34801561018b575f80fd5b506002545b604051908152602001610148565b3480156101a9575f80fd5b506101706101b8366004610b9a565b6103f3565b3480156101c8575f80fd5b5060405160128152602001610148565b3480156101e3575f80fd5b506101f76101f2366004610bd8565b610416565b005b348015610204575f80fd5b506101f7610213366004610c06565b6104fd565b348015610223575f80fd5b5047610190565b348015610235575f80fd5b50610190610244366004610c1d565b6001600160a01b03165f9081526020819052604090205490565b348015610269575f80fd5b506101f7610278366004610c87565b61053f565b348015610288575f80fd5b5060055461029c906001600160a01b031681565b6040516001600160a01b039091168152602001610148565b3480156102bf575f80fd5b5061013b610684565b3480156102d3575f80fd5b506101706102e2366004610b70565b610693565b3480156102f2575f80fd5b506101f7610301366004610cee565b6106a0565b348015610311575f80fd5b50610190610320366004610d70565b6001600160a01b039182165f90815260016020908152604080832093909416825291909152205490565b60606003805461035990610d9c565b80601f016020809104026020016040519081016040528092919081815260200182805461038590610d9c565b80156103d05780601f106103a7576101008083540402835291602001916103d0565b820191905f5260205f20905b8154815290600101906020018083116103b357829003601f168201915b5050505050905090565b5f336103e781858561074f565b60019150505b92915050565b5f3361040085828561075c565b61040b8585856107d7565b506001949350505050565b6005546001600160a01b031633146104755760405162461bcd60e51b815260206004820152601f60248201527f4f6e6c7920746865206f776e65722063616e207769746864726177204554480060448201526064015b60405180910390fd5b814710156104c55760405162461bcd60e51b815260206004820152601860248201527f496e73756666696369656e74204554482062616c616e63650000000000000000604482015260640161046c565b6040516001600160a01b0382169083156108fc029084905f818181858888f193505050501580156104f8573d5f803e3d5ffd5b505050565b6105073382610834565b60405181815233907ffd38818f5291bf0bb3a2a48aadc06ba8757865d1dabd804585338aab3009dcb69060200160405180910390a250565b6005546001600160a01b031633146105995760405162461bcd60e51b815260206004820152601e60248201527f4f6e6c7920746865206f776e65722063616e206d696e7420746f6b656e730000604482015260640161046c565b8281146105dc5760405162461bcd60e51b81526020600482015260116024820152704d69736d6174636865642061727261797360781b604482015260640161046c565b5f5b838110156106405761062e8585838181106105fb576105fb610dd4565b90506020020160208101906106109190610c1d565b84848481811061062257610622610dd4565b9050602002013561086c565b8061063881610dfc565b9150506105de565b507fd254385c8b96fd2366149d33b47832c65b54b278fb7dfab0a505c2f741a13513848484846040516106769493929190610e14565b60405180910390a150505050565b60606004805461035990610d9c565b5f336103e78185856107d7565b6005546001600160a01b031633146106fa5760405162461bcd60e51b815260206004820152601e60248201527f4f6e6c7920746865206f776e65722063616e206d696e7420746f6b656e730000604482015260640161046c565b610704848461086c565b836001600160a01b03167f9d89e36eadf856db0ad9ffb5a569e07f95634dddd9501141ecf04820484ad0dc84848460405161074193929190610e90565b60405180910390a250505050565b6104f883838360016108a0565b6001600160a01b038381165f908152600160209081526040808320938616835292905220545f1981146107d157818110156107c357604051637dc7a0d960e11b81526001600160a01b0384166004820152602481018290526044810183905260640161046c565b6107d184848484035f6108a0565b50505050565b6001600160a01b03831661080057604051634b637e8f60e11b81525f600482015260240161046c565b6001600160a01b0382166108295760405163ec442f0560e01b81525f600482015260240161046c565b6104f8838383610972565b6001600160a01b03821661085d57604051634b637e8f60e11b81525f600482015260240161046c565b610868825f83610972565b5050565b6001600160a01b0382166108955760405163ec442f0560e01b81525f600482015260240161046c565b6108685f8383610972565b6001600160a01b0384166108c95760405163e602df0560e01b81525f600482015260240161046c565b6001600160a01b0383166108f257604051634a1406b160e11b81525f600482015260240161046c565b6001600160a01b038085165f90815260016020908152604080832093871683529290522082905580156107d157826001600160a01b0316846001600160a01b03167f8c5be1e5ebec7d5bd14f71427d1e84f3dd0314c0f7b2291e5b200ac8c7c3b9258460405161096491815260200190565b60405180910390a350505050565b306001600160a01b0383160361098c576104f88382610997565b6104f88383836109e8565b6109a18282610834565b816001600160a01b03167ffd38818f5291bf0bb3a2a48aadc06ba8757865d1dabd804585338aab3009dcb6826040516109dc91815260200190565b60405180910390a25050565b6001600160a01b038316610a12578060025f828254610a079190610ec5565b90915550610a829050565b6001600160a01b0383165f9081526020819052604090205481811015610a645760405163391434e360e21b81526001600160a01b0385166004820152602481018290526044810183905260640161046c565b6001600160a01b0384165f9081526020819052604090209082900390555b6001600160a01b038216610a9e57600280548290039055610abc565b6001600160a01b0382165f9081526020819052604090208054820190555b816001600160a01b0316836001600160a01b03167fddf252ad1be2c89b69c2b068fc378daa952ba7f163c4a11628f55a4df523b3ef83604051610b0191815260200190565b60405180910390a3505050565b5f6020808352835180828501525f5b81811015610b3957858101830151858201604001528201610b1d565b505f604082860101526040601f19601f8301168501019250505092915050565b6001600160a01b0381168114610b6d575f80fd5b50565b5f8060408385031215610b81575f80fd5b8235610b8c81610b59565b946020939093013593505050565b5f805f60608486031215610bac575f80fd5b8335610bb781610b59565b92506020840135610bc781610b59565b929592945050506040919091013590565b5f8060408385031215610be9575f80fd5b823591506020830135610bfb81610b59565b809150509250929050565b5f60208284031215610c16575f80fd5b5035919050565b5f60208284031215610c2d575f80fd5b8135610c3881610b59565b9392505050565b5f8083601f840112610c4f575f80fd5b50813567ffffffffffffffff811115610c66575f80fd5b6020830191508360208260051b8501011115610c80575f80fd5b9250929050565b5f805f8060408587031215610c9a575f80fd5b843567ffffffffffffffff80821115610cb1575f80fd5b610cbd88838901610c3f565b90965094506020870135915080821115610cd5575f80fd5b50610ce287828801610c3f565b95989497509550505050565b5f805f8060608587031215610d01575f80fd5b8435610d0c81610b59565b935060208501359250604085013567ffffffffffffffff80821115610d2f575f80fd5b818701915087601f830112610d42575f80fd5b813581811115610d50575f80fd5b886020828501011115610d61575f80fd5b95989497505060200194505050565b5f8060408385031215610d81575f80fd5b8235610d8c81610b59565b91506020830135610bfb81610b59565b600181811c90821680610db057607f821691505b602082108103610dce57634e487b7160e01b5f52602260045260245ffd5b50919050565b634e487b7160e01b5f52603260045260245ffd5b634e487b7160e01b5f52601160045260245ffd5b5f60018201610e0d57610e0d610de8565b5060010190565b604080825281018490525f8560608301825b87811015610e56578235610e3981610b59565b6001600160a01b0316825260209283019290910190600101610e26565b5083810360208501528481526001600160fb1b03851115610e75575f80fd5b8460051b915081866020830137016020019695505050505050565b83815260406020820152816040820152818360608301375f818301606090810191909152601f909201601f1916010192915050565b808201808211156103ed576103ed610de856fea2646970667358221220b4e410ec3401d458f296b13634008b66f71aeedb3dfb2df37469bf493abb6ebb64736f6c63430008140033",
  "immutableReferences": {},
  "source": "// SPDX-License-Identifier: MIT\r\npragma solidity ^0.8.0;\r\n\r\nimport \"@openzeppelin/contracts/token/ERC20/ERC20.sol\";\r\n\r\ncontract Handraise is ERC20 {\r\n    address public owner;\r\n\r\n    // Event to log when tokens are sent to the contract and burned\r\n    event TokensBurned(address indexed sender, uint256 amount);\r\n\r\n    // Event to log details of minting\r\n    event TokensMinted(address indexed recipient, uint256 amount, string reason);\r\n\r\n    // Event to log batch minting details\r\n    event TokensMintedBatch(address[] recipients, uint256[] amounts);\r\n\r\n    event ReceivedETH(address indexed sender, uint256 amount);\r\n\r\n\r\n    constructor(\r\n        string memory name,\r\n        string memory symbol,\r\n        uint8 decimals,\r\n        uint256 initialSupply\r\n    ) ERC20(name, symbol) {\r\n        owner = msg.sender;\r\n        _mint(msg.sender, initialSupply * (10 ** decimals));\r\n    }\r\n\r\n    // Function to accept ETH transfers and store it\r\n    receive() external payable {\r\n        emit ReceivedETH(msg.sender, msg.value);\r\n    }\r\n\r\n     // Function to handle token transfers to the contract\r\n    function burnTokensOnReceive(address from, uint256 amount) private {\r\n        _burn(from, amount);\r\n        emit TokensBurned(from, amount);\r\n    }\r\n\r\n    // Override the ERC20 _update function to burn tokens sent to the contract\r\n    function _update(\r\n        address from,\r\n        address to,\r\n        uint256 amount\r\n    ) internal override {\r\n        if (to == address(this)) {\r\n            burnTokensOnReceive(from, amount);\r\n        } else {\r\n            super._update(from, to, amount);\r\n        }\r\n    }\r\n\r\n    // Function to withdraw ETH from the contract\r\n    function withdrawETH(uint256 amount, address payable to) external {\r\n        require(msg.sender == owner, \"Only the owner can withdraw ETH\");\r\n        require(address(this).balance >= amount, \"Insufficient ETH balance\");\r\n        to.transfer(amount);\r\n    }\r\n\r\n    // Helper function to check the contract's ETH balance\r\n    function getContractBalance() external view returns (uint256) {\r\n        return address(this).balance;\r\n    }\r\n\r\n    // Function to mint new tokens\r\n    function mint(address to, uint256 amount, string calldata reason) external {\r\n        require(msg.sender == owner, \"Only the owner can mint tokens\");\r\n        _mint(to, amount);\r\n        emit TokensMinted(to, amount, reason);\r\n    }\r\n\r\n\r\n    // Function to mint tokens in batch\r\n    function mintBatch(address[] calldata recipients, uint256[] calldata amounts) external {\r\n        require(msg.sender == owner, \"Only the owner can mint tokens\");\r\n        require(recipients.length == amounts.length, \"Mismatched arrays\");\r\n\r\n        for (uint256 i = 0; i < recipients.length; i++) {\r\n            _mint(recipients[i], amounts[i]);\r\n        }\r\n\r\n        emit TokensMintedBatch(recipients, amounts);\r\n    }\r\n\r\n    // Burn tokens manually\r\n    function burn(uint256 amount) external {\r\n        _burn(msg.sender, amount);\r\n        emit TokensBurned(msg.sender, amount);\r\n    }\r\n}\r\n\r\n\r\n",
  "sourcePath": "C:\\Users\\bisho\\Documents\\Crypto\\Goat Group\\Handraise\\contracts\\handraise.sol",
  "compiler": {
    "name": "solc",
    "version": "0.8.20+commit.a1b79de6.Emscripten.clang"
  },
  "schemaVersion": "3.4.16",
  "updatedAt": "2024-12-02T00:50:03.186Z",
  "networkType": "ethereum",
  "devdoc": {
    "errors": {
      "ERC20InsufficientAllowance(address,uint256,uint256)": [
        {
          "details": "Indicates a failure with the `spender`s `allowance`. Used in transfers.",
          "params": {
            "allowance": "Amount of tokens a `spender` is allowed to operate with.",
            "needed": "Minimum amount required to perform a transfer.",
            "spender": "Address that may be allowed to operate on tokens without being their owner."
          }
        }
      ],
      "ERC20InsufficientBalance(address,uint256,uint256)": [
        {
          "details": "Indicates an error related to the current `balance` of a `sender`. Used in transfers.",
          "params": {
            "balance": "Current balance for the interacting account.",
            "needed": "Minimum amount required to perform a transfer.",
            "sender": "Address whose tokens are being transferred."
          }
        }
      ],
      "ERC20InvalidApprover(address)": [
        {
          "details": "Indicates a failure with the `approver` of a token to be approved. Used in approvals.",
          "params": {
            "approver": "Address initiating an approval operation."
          }
        }
      ],
      "ERC20InvalidReceiver(address)": [
        {
          "details": "Indicates a failure with the token `receiver`. Used in transfers.",
          "params": {
            "receiver": "Address to which tokens are being transferred."
          }
        }
      ],
      "ERC20InvalidSender(address)": [
        {
          "details": "Indicates a failure with the token `sender`. Used in transfers.",
          "params": {
            "sender": "Address whose tokens are being transferred."
          }
        }
      ],
      "ERC20InvalidSpender(address)": [
        {
          "details": "Indicates a failure with the `spender` to be approved. Used in approvals.",
          "params": {
            "spender": "Address that may be allowed to operate on tokens without being their owner."
          }
        }
      ]
    },
    "events": {
      "Approval(address,address,uint256)": {
        "details": "Emitted when the allowance of a `spender` for an `owner` is set by a call to {approve}. `value` is the new allowance."
      },
      "Transfer(address,address,uint256)": {
        "details": "Emitted when `value` tokens are moved from one account (`from`) to another (`to`). Note that `value` may be zero."
      }
    },
    "kind": "dev",
    "methods": {
      "allowance(address,address)": {
        "details": "See {IERC20-allowance}."
      },
      "approve(address,uint256)": {
        "details": "See {IERC20-approve}. NOTE: If `value` is the maximum `uint256`, the allowance is not updated on `transferFrom`. This is semantically equivalent to an infinite approval. Requirements: - `spender` cannot be the zero address."
      },
      "balanceOf(address)": {
        "details": "See {IERC20-balanceOf}."
      },
      "decimals()": {
        "details": "Returns the number of decimals used to get its user representation. For example, if `decimals` equals `2`, a balance of `505` tokens should be displayed to a user as `5.05` (`505 / 10 ** 2`). Tokens usually opt for a value of 18, imitating the relationship between Ether and Wei. This is the default value returned by this function, unless it's overridden. NOTE: This information is only used for _display_ purposes: it in no way affects any of the arithmetic of the contract, including {IERC20-balanceOf} and {IERC20-transfer}."
      },
      "name()": {
        "details": "Returns the name of the token."
      },
      "symbol()": {
        "details": "Returns the symbol of the token, usually a shorter version of the name."
      },
      "totalSupply()": {
        "details": "See {IERC20-totalSupply}."
      },
      "transfer(address,uint256)": {
        "details": "See {IERC20-transfer}. Requirements: - `to` cannot be the zero address. - the caller must have a balance of at least `value`."
      },
      "transferFrom(address,address,uint256)": {
        "details": "See {IERC20-transferFrom}. Skips emitting an {Approval} event indicating an allowance update. This is not required by the ERC. See {xref-ERC20-_approve-address-address-uint256-bool-}[_approve]. NOTE: Does not update the allowance if the current allowance is the maximum `uint256`. Requirements: - `from` and `to` cannot be the zero address. - `from` must have a balance of at least `value`. - the caller must have allowance for ``from``'s tokens of at least `value`."
      }
    },
    "version": 1
  },
  "userdoc": {
    "kind": "user",
    "methods": {},
    "version": 1
  }
}